:020000040800F2
:100000000080012085020008D5020008D502000802
:10001000D5020008D5020008D50200080000000043
:10002000000000000000000000000000D5020008F1
:10003000D502000800000000D5020008D502000823
:1000400000000000D5020008D5020008D502000813
:10005000D5020008D5020008D5020008D502000824
:10006000D5020008D5020008D5020008D502000814
:10007000D5020008D5020008D5020008D502000804
:10008000D5020008D5020008D502000800000000D3
:10009000000000000000000000000000D502000881
:1000A000D5020008D5020008D5020008D5020008D4
:1000B000D5020008D5020008D5020008D5020008C4
:1000C000D5020008D5020008D5020008D5020008B4
:1000D000D5020008D5020008D50200080000000083
:1000E000D5020008D5020008D50200080000000073
:1000F000000000000000000000000000D502000821
:1001000000000000D5020008D5020008D502000852
:1001100000000000000000000000000000000000DF
:10012000D5020008D5020008D5020008D502000853
:10013000D5020008000000000000000000000000E0
:10014000000000000000000000000000D5020008D0
:10015000D5020008D5020008D5020008D502000823
:10016000D5020008D50200080000000000000000D1
:10017000000000000000000000000000000000007F
:10018000000000000000000000000000000000006F
:04019000D50200088C
:1001940010B5054C237833B9044B13B10448AFF3BD
:1001A40000800123237010BD000000200000000027
:1001B4002003000808B5034B1BB103490348AFF300
:1001C400008008BD00000000040000202003000897
:1001D40080B487B000AF0346FB710B4A07F10C03F0
:1001E40007CA03C31A80094B5B69FA7918323A4487
:1001F40012F80C2C1146054A0B43536100BF1C37FF
:10020400BD465DF8047B70473803000800000240D7
:1002140080B582B000AF174B1B6B164A43F0010345
:100224001363154B1B68144A43F4AA5343F0150394
:10023400136000237B6018E07B68DBB21846FFF78D
:10024400C7FF00233B6003E000BF3B6801333B6012
:100254003B680A4A9342F7DD074B5B69064A23F081
:100264007F0353617B6801337B607B68092BE3DD8B
:10027400DFE700BF00380240000002403F420F00A9
:100284000D488546AFF300800C480D490D4A002304
:1002940002E0D458C4500433C4188C42F9D30A4A37
:1002A4000A4C002301E013600432A242FBD300F0A5
:1002B40011F8FFF7ADFFFEE70080012000000020E9
:1002C400000000204C030008000000201C00002057
:1002D400FEE7000070B50D4D0D4C641BA410002604
:1002E400A64209D10B4D0C4C00F018F8641BA41065
:1002F4000026A64205D170BD55F8043B9847013647
:10030400EEE755F8043B98470136F2E7440300084A
:10031400440300084403000848030008F8B500BF7C
:10032400F8BC08BC9E467047F8B500BFF8BC08BCD2
:040334009E4670472A
:0C0338003F065B4F666D7D077F6F000085
:04034400B9010008F3
:040348009501000813
:040000050800028568
:00000001FF
