:020000040800F2
:10000000002800203D0A0008E5090008E70900086B
:10001000E9090008EB090008ED09000800000000EC
:10002000000000000000000000000000EF090008D0
:10003000F109000800000000F3090008F5090008B4
:10004000850A0008850A0008850A0008850A000854
:10005000850A0008850A0008850A0008850A000844
:10006000850A0008850A0008850A0008850A000834
:10007000850A0008850A0008850A0008850A000824
:10008000850A0008850A0008850A0008850A000814
:10009000850A0008850A0008850A0008850A000804
:1000A000850A0008850A0008850A0008850A0008F4
:1000B000850A0008850A000800000000850A00087B
:1000C000850A00080000000000000000850A000802
:1000D00000000000850A0008850A000800000000F2
:1000E000850A0008850A0008850A0008000000004B
:1000F0000000000000000000000000000000000000
:0C01000000000000000000005FF808F1A3
:1001100010B5054C237833B9044B13B10448AFF341
:1001200000800123237010BD70000020000000003B
:100130002C24000808B5034B1BB103490348AFF357
:10014000008008BD00000000740000202C2400087E
:10015000034613F8012B002AFBD1181A0138704707
:1001600070B54FF0FF0C4CF4E06C1CEA11541DBF4D
:100170001CEA135594EA0C0F95EA0C0F00F0DEF818
:100180002C4481EA030621EA4C5123EA4C5350EAFD
:10019000013518BF52EA033541F4801143F480134E
:1001A00038D0A0FB02CE4FF00005E1FB02E506F0DF
:1001B0000042E0FB03E54FF00006E1FB03569CF034
:1001C000000F18BF4EF0010EA4F1FF04B6F5007F3A
:1001D00064F5407404D25FEA4E0E6D4146EB0606AC
:1001E00042EAC62141EA55514FEAC52040EA5E5035
:1001F0004FEACE2EB4F1FD0C88BFBCF5E06F1ED8DF
:10020000BEF1004F08BF5FEA500E50F1000041EB15
:10021000045170BD06F0004646EA010140EA0200C2
:1002200081EA0301B4EB5C04C2BFD4EB0C0541EAE4
:10023000045170BD41F480114FF0000E013C00F3F9
:10024000AB8014F1360FDEBF002001F0004170BD1D
:10025000C4F10004203C35DA0C341BDC04F1140436
:10026000C4F1200500FA05F320FA04F001FA05F2C2
:1002700040EA020001F0004221F0004110EBD3708F
:1002800021FA04F642EB06015EEA430E08BF20EABB
:10029000D37070BDC4F10C04C4F1200500FA04F35E
:1002A00020FA05F001FA04F240EA020001F00041F0
:1002B00010EBD37041F100015EEA430E08BF20EA63
:1002C000D37070BDC4F1200500FA05F24EEA020EAB
:1002D00020FA04F301FA05F243EA020321FA04F0DA
:1002E00001F0004121FA04F220EA020000EBD37091
:1002F0005EEA430E08BF20EAD37070BD94F0000F91
:100300000FD101F00046400041EB010111F4801FC4
:1003100008BF013CF7D041EA060195F0000F18BF75
:10032000704703F00046520043EB030313F4801FB1
:1003300008BF013DF7D043EA0603704794EA0C0F6B
:100340000CEA135518BF95EA0C0F0CD050EA410681
:1003500018BF52EA4306D1D181EA030101F00041FE
:100360004FF0000070BD50EA410606BF1046194626
:1003700052EA430619D094EA0C0F02D150EA013632
:1003800013D195EA0C0F05D152EA03361CBF104673
:1003900019460AD181EA030101F0004141F0FE4112
:1003A00041F470014FF0000070BD41F0FE4141F496
:1003B000780170BD81F0004102E000BF83F000438E
:1003C00030B54FEA41044FEA430594EA050F08BFF0
:1003D00090EA020F1FBF54EA000C55EA020C7FEAB4
:1003E000645C7FEA655C00F0E2804FEA5454D4EB31
:1003F0005555B8BF6D420CDD2C4480EA020281EAFB
:10040000030382EA000083EA010180EA020281EA32
:100410000303362D88BF30BD11F0004F4FEA013184
:100420004FF4801C4CEA113102D0404261EB410193
:1004300013F0004F4FEA03334CEA133302D0524219
:1004400063EB430394EA050F00F0A780A4F10104D5
:10045000D5F1200E0DDB02FA0EFC22FA05F280180F
:1004600041F1000103FA0EF2801843FA05F35941F5
:100470000EE0A5F120050EF1200E012A03FA0EFC74
:1004800028BF4CF0020C43FA05F3C01851EBE3719E
:1004900001F0004507D54FF0000EDCF1000C7EEBBB
:1004A00000006EEB0101B1F5801F1BD3B1F5001FF9
:1004B0000CD349085FEA30004FEA3C0C04F1010418
:1004C0004FEA445212F5800F80F09A80BCF1004F41
:1004D00008BF5FEA500C50F1000041EB045141EAC3
:1004E000050130BD5FEA4C0C404141EB0101013C8C
:1004F00028BFB1F5801FE9D291F0000F04BF01467B
:100500000020B1FA81F308BF2033A3F10B03B3F14C
:1005100020020CDA0C3208DD02F1140CC2F10C02DC
:1005200001FA0CF021FA02F10CE002F11402D8BF3A
:10053000C2F1200C01FA02F120FA0CFCDCBF41EA06
:100540000C019040E41AA2BF01EB0451294330BDD5
:100550006FEA04041F3C1CDA0C340EDC04F11404B2
:10056000C4F1200220FA04F001FA02F340EA030089
:1005700021FA04F345EA030130BDC4F10C04C4F1CF
:10058000200220FA02F001FA04F340EA03002946AF
:1005900030BD21FA04F0294630BD94F0000F83F4F9
:1005A000801306BF81F480110134013D4EE77FEADC
:1005B000645C18BF7FEA655C29D094EA050F08BF28
:1005C00090EA020F05D054EA000C04BF1946104609
:1005D00030BD91EA030F1EBF0021002030BD5FEA4D
:1005E000545C05D14000494128BF41F0004130BD75
:1005F00014F580043CBF01F5801130BD01F00045C9
:1006000045F0FE4141F470014FF0000030BD7FEA3B
:10061000645C1ABF194610467FEA655C1CBF0B4636
:10062000024650EA013406BF52EA033591EA030F4D
:1006300041F4002130BD00BF90F0000F04BF002145
:10064000704730B54FF4806404F132044FF0000578
:100650004FF0000150E700BF90F0000F04BF0021F1
:10066000704730B54FF4806404F1320410F0004557
:1006700048BF40424FF000013EE700BF42004FEA52
:10068000E2014FEA31014FEA02701FBF12F07F43CF
:1006900093F07F4F81F06051704732F07F4208BF86
:1006A000704793F07F4F04BF41F40021704730B58D
:1006B0004FF4607401F0004521F000411CE700BFD9
:1006C00050EA010208BF704730B54FF000050AE05C
:1006D00050EA010208BF704730B511F0004502D55D
:1006E000404261EB41014FF4806404F132045FEA5F
:1006F000915C3FF4D8AE4FF003025FEADC0C18BF08
:1007000003325FEADC0C18BF033202EBDC02C2F1F9
:10071000200300FA03FC20FA02F001FA03FE40EA8B
:100720000E0021FA02F11444BDE600BF4A0011D2C6
:1007300012F5001211D20DD56FF47873B3EB62523B
:100740000ED44FEAC12343F0004343EA505323FA47
:1007500002F070474FF00000704750EA013002D1BC
:100760004FF0FF3070474FF00000704730B595B044
:10077000242200210BA801F0D7F914221025002112
:100780000DEB020001F0D0F900212A4601A801F08A
:10079000CBF9022401230AA8CDE90E350A9400F012
:1007A00059FD014608B172B6FEE70F23CDE90700F7
:1007B000CDE90530099005A800F00EFF08B172B62A
:1007C000FEE7039001A8019400F0C2FF08B172B6E1
:1007D000FEE715B030BD0000F0B587B000F078F945
:1007E000FFF7C4FF384B394C9A69012542F02002CB
:1007F0009A619A69204602F020020192019A9A6950
:1008000042F004029A619B69314A03F004030293A7
:10081000029B226000234FF46022CDE9033305934D
:10082000A36023732375E2616360256100F066FBBA
:1008300008B172B6FEE7CDE90305059003A920468D
:1008400000F01AFA034608B172B6FEE74FF41652EA
:1008500020482149C0E90233C0E900120C2203619B
:10086000C0E90523C36101F0BBF830BB14A7D7E989
:100870000067204600F0BAFA42F21071204600F0FC
:100880004BF9204600F0F4F980B2FFF7E5FE3B4655
:100890003246FFF765FCFFF749FF104982B203A813
:1008A00001F04AF903A8FFF753FC42F2107382B239
:1008B00003A9084801F0C3F8DBE772B6FEE700BF02
:1008C000EC5BB036D338333F001002408C00002080
:1008D00000240140BC0000200038014044240008EE
:1008E0000A4B82B09A6942F001029A619A6902F059
:1008F00001020092009ADA6942F08052DA61DB6903
:1009000003F080530193019B02B070470010024036
:1009100010B5044686B01022002102A801F004F9A7
:100920002268104B9A421BD103F56C439A690E481A
:1009300042F400729A619A6902A902F4007200926C
:10094000009A9A6942F004029A619B69012203F0BD
:1009500004030193019B0323CDE9022300F0A4FBD0
:1009600006B010BD002401400008014010B5044647
:1009700086B01022002102A801F0D6F82268174B99
:100980009A4228D103F558439A69154842F48042A7
:100990009A619A6902A902F480420092009A9A69C7
:1009A00042F004029A619B694FF4007203F0040361
:1009B0000193019B0223CDE902230323059300F059
:1009C00073FB4FF4806100230548CDE9021302A9AF
:1009D000049300F069FB06B010BD00BF0038014071
:1009E00000080140FEE7FEE7FEE7FEE7FEE770478E
:1009F0007047704700F07EB80B4A0346116810B587
:100A000009B90A491160106809490A4C0344091BD5
:100A10008B4206D901F05EF80C2303604FF0FF30E3
:100A200010BD1360FCE700BF04010020200100207E
:100A3000002800200004000070470000FFF7FCFFC2
:100A40000B480C490C4A002302E0D458C45004332C
:100A5000C4188C42F9D3094A094C002301E0136001
:100A60000432A242FBD301F03BF8FFF7B5FE70471A
:100A70000000002070000020C42400087000002046
:100A80001C010020FEE7000038B50E4B0546187823
:100A90004FF47A73B3FBF0F30B4A1068B0FBF3F03A
:100AA00000F0EEFA044658B90F2D09D8024629463F
:100AB0004FF0FF3000F0B2FA2046044B1D6038BD05
:100AC0000120FCE7040000200000002008000020B6
:100AD000074A08B51368032043F01003136000F0C1
:100AE0008BFA0F20FFF7D0FFFFF7FAFE002008BDBA
:100AF00000200240034A044B11681B780B4413602A
:100B0000704700BF0801002004000020014B186856
:100B1000704700BF08010020F7B5002604460D46C7
:100B20000196FFF7F3FF236807469A68D20508D5B8
:100B30000120A36A84F8246043F02003A36203B079
:100B4000F0BD5A68D60503D4DB6A13F4700F3FD0AA
:100B5000414B02201E6800F075FE23683F4A196968
:100B6000B6FBF0F611423E4A53D1D8683D490842DF
:100B70004FD1196911425DD1DA683B4B1A4214BF5B
:100B8000292314235E43019BB34225D26A1C5CD007
:100B9000002D55D1019BB34257D2A36A43F0040301
:100BA000A36200230BE0681C13D065B923681B689F
:100BB00013F002030CD1A26A42F00402A2620320E5
:100BC00084F82430BBE7FFF7A1FFC01BA842EDD893
:100BD000226813689907E6D56FF012032268136044
:100BE000A36A43F40073A362936803F46023B3F52C
:100BF000602F2ED1207B00282BD1A36A23F4807391
:100C0000A362A36ADB0424D4A36A43F00103A362B2
:100C100095E71969114203D1D968134A11420BD0E3
:100C20001969124A114209D1DB68134214BFFC232F
:100C30005423A7E72923A5E75423A3E7FC23A1E72F
:100C4000FFF764FFC01BA842A4D8019B01330193A6
:100C500099E7002073E700BF000000202449922498
:100C60009224491224499200922449004992240076
:100C70000368D86C70470000002373B5019390F8A7
:100C800024300446012B6CD0012380F824304D68B9
:100C90000268062D086805EB850322D81F26556BD0
:100CA000053B9E4025EA060500FA03F32B435363F8
:100CB00009288B6800EB40054FF0070129D9D66859
:100CC0001E3DA94026EA0101AB400B43D360A0F1D1
:100CD0001003012B25D90020002384F8243002B012
:100CE00070BD0C2D4FF01F0509D8166B233B9D409E
:100CF00026EA050500FA03F32B431363D8E7D66A07
:100D0000413B9D4026EA050500FA03F32B43D362DD
:100D1000CEE71069A94020EA0101AB400B43136103
:100D2000D9E7114B9A4216D193681B02D3D493682A
:100D3000102843F400039360CDD10C4B0C4A1B6880
:100D4000B3FBF2F30A2253430193019B002BC2D061
:100D5000019B013BF8E7A36A012043F02003A36253
:100D6000BAE70220BBE700BF0024014000000020DA
:100D700040420F00002337B50193036804469A6888
:100D8000D20702D5002003B030BD9A6842F00102BC
:100D90009A60144B144A1B68B3FBF2F30193019B56
:100DA000E3B9FFF7B3FE054623689B68DB07E9D488
:100DB000FFF7ACFE401B0228F6D923689B6813F0AE
:100DC0000103F1D1A26A012042F01002A262E26A9C
:100DD00084F8243042F00102E262D4E7019B013B37
:100DE000DCE700BF0000002040420F0010B590F883
:100DF00024300446012B54D0012380F82430FFF71F
:100E0000B9FF002849D1A36A274A23F4407323F08D
:100E1000010343F48073A3622368934204D12349FE
:100E20004A6812F4702F2ED1A26A22F48012A262B4
:100E30005A68520541BFA26A22F4405242F48052DD
:100E4000A262A26A12F480521CBFE26A22F0060279
:100E5000E262002284F824206FF002021A609A688D
:100E600002F46022B2F5602F13D10F4A934205D1EC
:100E7000A2F58062526812F4702F0AD19A6842F487
:100E8000A0029A6010BDA26A42F48012A2624A686F
:100E9000CFE79A6842F48012F3E7002384F8243005
:100EA000F0E70220EEE700BF0028014000240140E7
:100EB00038B5036804469A68D10701D4002038BDCC
:100EC0009A6822F001029A60FFF720FE0546236827
:100ED0009B68DB07F2D5FFF719FE401B0228F6D905
:100EE00023689B68DA07F2D5A36A012043F0100358
:100EF000A362E36A43F00103E362E0E7F8B5044666
:100F000000286ED0836A23B9C36280F82430FFF7CB
:100F1000FFFC2046FFF7CCFFA36A13F0100362D159
:100F2000002860D1A26AE569616822F4885222F043
:100F3000020242F002022943A568A262227BB5F5B3
:100F4000807F41EA420137D0012D14BF00274FF4C2
:100F50008077267D012E06D182BBA269013A47EA3D
:100F6000423646F400672268B5F5807F566826F45D
:100F7000694646EA0706566097681D4E06EA070668
:100F800046EA0106966001D0012D02D12369013B9A
:100F90001B05D56A25F470052B43D3629268154B67
:100FA0001340994213D10023E362A36A23F00303A1
:100FB00043F00103A362F8BD2F46CAE7A26A42F0DC
:100FC0002002A262E26A42F00102E262CBE7A36A77
:100FD00023F0120343F01003A362E36A43F001031A
:100FE000E3620120E7E7A36A43F01003A362F8E796
:100FF000FDF7E1FFFE0E1FFF07490302CA6803F475
:10100000E06322F4E0621204120C134343F0BF6366
:1010100043F40033CB60704700ED00E0164B30B571
:10102000DC68C4F30224C4F10703251D042B28BF88
:101030000423062D4FF0FF3598BF002405FA03F373
:1010400088BF033C21EA0303A34005FA04F422EA23
:101050000402002843EA0203ACBF00F16040074AE3
:101060004FEA0313DBB2ABBF00F5614000F00F00A5
:1010700080F80033135430BD00ED00E014ED00E0C3
:101080000138B0F1807F0BD24FF0E023F021054A08
:10109000586182F823100020072298611A61704776
:1010A0000120704700ED00E02DE9F74F00221646C1
:1010B000614F624BDFF888C1DFF888E10D6835FACF
:1010C00006F402D103B0BDE8F08F4FF0010808FA32
:1010D00006F805EA080438EA050577D14D68032DBE
:1010E00007D8013D022D00F28280DFE805F09297DB
:1010F0009D00122D00F095806AD8112D00F08B8094
:10110000FF2C98BF82464FF00F0988BF00F1040AF8
:101110004FEA8605DAF8008088BF203D09FA05FB12
:1011200028EA0B0802FA05F548EA0505CAF8005056
:10113000D1F804A01AF0805F48D0BD6926F00308FA
:1011400045F00105BD61BD6908F1804805F0010564
:10115000019508F5803806F0030B019D4FEA8B0BD3
:10116000D8F8085009FA0BF925EA0909364DA842C2
:101170005ED005F58065A8425CD005F58065A84283
:101180000CBF0225032505FA0BF545EA0905C8F849
:1011900008509D681AF4801F14BF2543A5439D6025
:1011A000DD681AF4001F14BF2543A543DD605D68A8
:1011B0001AF4003F14BF2543A5435D601D681AF46F
:1011C000803F14BF2C4325EA04041C60013675E7F8
:1011D000DFF878904D450AD015D8754507D0A9F5A8
:1011E00080394D4503D0A9F580194D4588D18A68CD
:1011F000E2B1012A08BFC0F810804FF0080218BF02
:10120000C0F814807CE7DFF848904D45EFD0654585
:10121000ECE7CA6874E7CA68043271E7CA68083242
:101220006EE7CA680C326BE7002269E7042267E7C1
:101230000025A8E70125A6E70010024000040140B0
:1012400000003210000012100008014000002210BF
:10125000000031102DE9F341054638B30368DB0780
:1012600010D42B689F075ED42B68190700F1958076
:101270002B685A0700F1C180E869002840F02C81F2
:10128000002029E0904C636803F00C03042B07D086
:10129000636803F00C03082B0AD16368DE0307D5EB
:1012A00023689C03DDD56B68002BDAD1012013E0A5
:1012B0006B68B3F5803F12D1236843F48033236019
:1012C000FFF724FC064623689803CAD4FFF71EFCE8
:1012D000801B6428F7D9032002B0BDE8F0819BB9D8
:1012E000236823F480332360236823F4802323605E
:1012F000FFF70CFC064623689903B2D5FFF706FCFE
:10130000801B6428F7D9E6E7B3F5A02F236803D143
:1013100043F480232360CFE723F4803323602368E2
:1013200023F48023CBE7684C636813F00C0F07D0DD
:10133000636803F00C03082B10D16368DA030DD443
:1013400023689B0702D52B69012BAFD123686A69FB
:1013500023F0F80343EAC203236085E72A695B4B65
:101360006AB101221A60FFF7D1FB064623689F0786
:10137000ECD4FFF7CBFB801B0228F7D9ABE71A6050
:10138000FFF7C4FB0646236898077FF56DAFFFF7AC
:10139000BDFB801B0228F6D99DE7AA694A4E4B4B3C
:1013A000E2B10122C3F88024FFF7B0FB0446736A60
:1013B0009B070DD54FF4FA52454B1B68B3FBF2F374
:1013C000019300BF019B5A1E0192002BF9D14FE7F8
:1013D000FFF79CFB001B0228E9D97CE7C3F88024B7
:1013E000FFF794FB0446736A9F077FF541AFFFF751
:1013F0008DFB001B0228F6D96DE7334CE369D8005A
:1014000024D40127E36943F08053E361E36903F0E7
:1014100080530093009B2F4E3368D90518D5EB6895
:10142000012B26D1236A43F001032362FFF76EFBF1
:1014300041F288380646236A9B073FD5002F3FF4C8
:101440001BAFE36923F08053E36115E70027E2E770
:10145000336843F480733360FFF758FB804633688A
:10146000DA05DCD4FFF752FBA0EB08006428F6D9BC
:1014700031E7ABB9236A41F2883823F001032362D4
:10148000236A23F004032362FFF740FB0646236A26
:101490009807D3D5FFF73AFB801B4045F7D91AE7E9
:1014A000052B236A03D143F004032362BAE723F038
:1014B00001032362236A23F00403B6E7FFF726FB48
:1014C000801B4045B7D906E70010024000004242A9
:1014D00000000020007000402A4C636803F00C03F9
:1014E000082B3ED00022284B02281A662CD1FFF789
:1014F0000DFB06462368990120D42B6AB3F5803F83
:1015000005D16268A96822F400320A436260696A00
:1015100062680B4322F474121343012263601A4B76
:101520001A66FFF7F3FA054623689A013FF5A8AE5D
:10153000FFF7ECFA401B0228F6D9CCE6FFF7E6FAF3
:10154000801B0228D6D9C6E6FFF7E0FA05462368D5
:101550009B017FF595AEFFF7D9FA401B0228F6D91B
:10156000B9E601283FF4B8AE63682A6A03F4803113
:1015700091427FF49BAE6A6A03F4701393423FF486
:101580007FAE93E600100240000042420D4A5368CD
:1015900003F00C01082912D10B48C3F38341DB038C
:1015A000405C09D55368094AC3F340435043084A95
:1015B000D35CB0FBF3F07047064B584370470348C9
:1015C000704700BF001002406224000800127A0039
:1015D0007224000800093D002DE9F0410D46044643
:1015E00010B90120BDE8F081444A136803F00703F5
:1015F0008B4228D321688E0730D4CA0743D43F4A90
:10160000136803F00703AB4265D822683C4D12F023
:10161000040F6CD1130706D56B68226923F460535D
:1016200043EAC2036B60FFF7B1FF6B68354AC3F34F
:101630000313D35CD840344B1860344B1868FFF761
:1016400023FA0020CEE7136823F007030B4313604F
:10165000136803F007038B42C3D1CBE7284B11F08B
:10166000040F1EBF5A6842F4E0625A60080742BF86
:101670005A6842F460525A605A68A06822F0F00238
:1016800002435A60B9E762681D4E012A33681AD1D5
:1016900013F4003FA5D0736841F2883823F00303A8
:1016A00013437360FFF732FA07467368626803F00A
:1016B0000C03B3EB820FA2D0FFF728FAC01B404502
:1016C000F3D903208EE7022A02D113F0007FE1E76D
:1016D00013F0020FDEE7136823F007032B431360B8
:1016E000136803F00703AB427FF47BAF8DE76B68B1
:1016F000E16823F4E0630B436B608BE7002002405A
:10170000001002404A2400080000002008000020C9
:10171000044B054A5B68C3F30223D35C034A106899
:10172000D8407047001002405A24000800000020F2
:10173000044B054A5B68C3F3C223D35C034A1068B9
:10174000D8407047001002405A24000800000020D2
:1017500003682DE9F341D907054620D5364CE369E6
:10176000DA0032D40126E36943F08053E361E36990
:1017700003F080530193019B304F3B68DB0526D576
:10178000236A13F4407336D1236A6A6823F44073E2
:10179000134323621EB1E36923F08053E361286899
:1017A000830706D52449AB684A6822F440421A43AD
:1017B0004A6010F010001BD01F4AE96853680020EF
:1017C00023F480030B43536012E00026D4E73B6808
:1017D00043F480733B60FFF799F980463B68D80576
:1017E000CED4FFF793F9A0EB08006428F6D90320C4
:1017F00002B0BDE8F0816A6802F440729A42C3D038
:1018000001200F4A236AC2F84004002023F44071EB
:10181000C2F840042162D907B6D5FFF777F941F243
:1018200088380746236A9A07AED4FFF76FF9C01BC2
:101830004045F7D9DBE700BF0010024000700040D0
:1018400000004242022808B544D0102803D00128E5
:1018500022D0002034E0254B5A68186810F08070C0
:101860002ED0C2F383412248D20348BF5A68405C5D
:1018700041BF2049C2F34042895C1F4A5B684CBFAC
:10188000B2FBF1F21D4A5B0202FB00F018D4032305
:101890004000B0FBF3F013E040F20231134A136A48
:1018A0001940B1F5817F1ED003F44073B3F5007F7A
:1018B00007D149F64043506A10F0020018BF18469D
:1018C00008BDB3F5407FC4D110684FF2244310F433
:1018D0000030F3E7FFF72CFF044B5B68C3F3813361
:1018E00001335B00D5E74FF40040E9E70010024008
:1018F000742400088424000800127A0000093D00C6
:1019000010B504460368C1681A6922F440520A43BC
:101910001A6182680069D9680243606921F4B05194
:1019200021F00C0102430A43DA605A69A16922F4EA
:1019300040720A435A610E4A934215D1FFF7F8FEEE
:1019400019234343626820689200B3FBF2F36422D8
:10195000B3FBF2F102FB11331B013233B3FBF2F3A1
:1019600003EB0113836010BDFFF7D2FEE8E700BF71
:1019700000380140F8B504460E4617461D46226859
:10198000136836EA030301D1002028E06B1CF7D06E
:1019900025B1FFF7BBF8C01B8542F0D2226802F1E7
:1019A0000C0353E8003F23F4D0730C3242E80030BC
:1019B00021680028F2D101F1140353E8003F23F01D
:1019C000010301F1140040E80032002AF3D1202382
:1019D000032084F8413084F8402084F84230F8BD78
:1019E00010B5044648B390F8413003F0FF021BB92C
:1019F00080F84020FEF7BAFF2423226884F84130A3
:101A0000D368204623F40053D360FFF779FF23689F
:101A100000201A6922F490421A615A6922F02A02BF
:101A20005A61DA6842F40052DA602023606484F874
:101A3000413084F84230606310BD0120FCE72DE99D
:101A4000F843994690F841300446202B0E4617463D
:101A50003CD100293CD0002A3AD0212300254564FE
:101A600080F84130FFF752F8A3688046B3F5805FF5
:101A7000A784E78403D123690BB935461E46E38C5E
:101A80009BB253B94B46424640212046FFF772FFB6
:101A900050B9202384F8413007E04B46424680216C
:101AA0002046FFF767FF10B10320BDE8F8832268E6
:101AB0004EB935F8023BC3F308035360E18C01399A
:101AC00089B2E184DBE716F8013BF6E70220ECE798
:101AD0000120EAE7014B1868704700BF0C000020A6
:101AE00070B500260C4D0D4C641BA410A64209D104
:101AF00000F09CFC00260A4D0A4C641BA410A64270
:101B000005D170BD55F8043B98470136EEE755F80E
:101B1000043B98470136F2E7BC240008BC240008C7
:101B2000BC240008C024000803460244934200D1AC
:101B3000704703F8011BF9E70EB46FF0004100B5E0
:101B40009CB01DAB0290069007910491084809498A
:101B500053F8042B0591006802A9019300F068F87E
:101B60000022029B1A701CB05DF804EB03B07047B2
:101B70000C0000200802FFFF2DE9F0478E68824626
:101B80009E420C4690461F4638D88A8912F4906FC0
:101B900032D0256809690133A5EB010965694B4419
:101BA00005EB450505EBD5756D109D4238BF1D460B
:101BB000530531D5294600F06FFB064650B90C237A
:101BC0004FF0FF30CAF80030A38943F04003A381EF
:101BD000BDE8F0874A46216900F0CEFAA38923F4D4
:101BE000906343F08003A38126614E4426603E4605
:101BF0006561A5EB0905A560BE4200D93E463246A7
:101C00004146206800F0C6FAA36800209B1BA36031
:101C1000236833442360DBE72A4600F0B1FB064625
:101C20000028E1D15046216900F0CEFAC7E7000054
:101C30002DE9F04F98468B8907461B060D46144642
:101C40009DB00ED50B6963B9402100F025FB2860DB
:101C5000286120B90C233B604FF0FF30D1E04023D6
:101C60006B610023099320238DF8293030234FF036
:101C70000109CDF80C80DFF8A4818DF82A302346C5
:101C80009A4613F8012B0AB1252AF9D1BAEB040BB5
:101C90000BD05B46224629463846FFF76DFF0130E0
:101CA00000F0AA80099A5A4409929AF80030002B51
:101CB00000F0A28000234FF0FF32CDE905230AF1A6
:101CC000010A049307938DF853301A935446052262
:101CD00014F8011B514800F041FA049AD8B9D00613
:101CE00044BF20238DF85330110744BF2B238DF8B8
:101CF00053309AF800302A2B15D0544600204FF06C
:101D00000A0C079A214611F8013B303B092B4ED9AA
:101D1000B0B1079214E0A0EB080309FA03F31343F0
:101D2000A2460493D2E7039B191D1B680391002B65
:101D3000BBBF5B4242F0020207930793B8BF049215
:101D400023782E2B0CD163782A2B35D1039B0234B8
:101D50001A1D1B680392002BB8BF4FF0FF33059389
:101D6000DFF8BCA003225046217800F0F7F940B11B
:101D70004023A0EB0A0003FA00F0049B0134034364
:101D8000049314F8011B062226488DF8281000F051
:101D9000E5F9002838D0244B1BBB039B073323F005
:101DA000070308330393099B3344099367E70C4601
:101DB00001200CFB0232A5E700234FF00A0C194664
:101DC00001340593204610F8012B303A092A03D933
:101DD000002BC5D00591C3E7044601230CFB01216C
:101DE000F0E703AB00932A463846104B04A9AFF343
:101DF0000080421C0646D6D1AB895B063FF52CAF6E
:101E000009981DB0BDE8F08F03AB00932A46384611
:101E1000064B04A900F07CF8EBE700BF862400081D
:101E20008C2400089024000800000000791B0008A2
:101E30002DE9F047164699468A680B690746934292
:101E4000B8BF1346336091F843200C46DDF820807C
:101E50000AB1013333602368990642BF3368023305
:101E60003360256815F0060506D104F1190AE36808
:101E700032689B1AAB4228DC94F84320131E226878
:101E800018BF012392062DD44946384604F1430277
:101E9000C047013020D02368E56803F00603042B17
:101EA00018BF002532684FF00006A36808BFAD1ABE
:101EB000226908BF25EAE5759342C4BF9B1AED1855
:101EC0001A34B5421AD1002008E00123524649468F
:101ED0003846C047013003D14FF0FF30BDE8F087EE
:101EE0000135C4E73020E11881F843005A1C94F80A
:101EF00045102244023382F84310C5E701232246ED
:101F000049463846C0470130E6D00136D9E70000DF
:101F10002DE9FF470F7E9146782F80460C469A4662
:101F20000C9D01F1430207D8622F0AD8002F00F060
:101F3000D980582F00F0A48004F1420584F8427043
:101F40003AE0A7F16303152BF6D801A151F823F06D
:101F5000A91F0008BD1F0008391F0008391F00080D
:101F6000391F0008391F0008BD1F0008391F00086D
:101F7000391F0008391F0008391F0008CB2000084E
:101F8000ED1F0008AD200008391F0008391F0008A8
:101F9000ED200008391F0008ED1F0008391F000858
:101FA000391F0008B52000082B681A1D1B682A601D
:101FB00004F1420584F842300123A4E02068296836
:101FC000060601F104030AD50E682B60002E03DA21
:101FD0002D23764284F843300A235E4819E00E68C8
:101FE00010F0400F2B6018BF36B2EFE72B68206867
:101FF000191D2960010601D51E6802E04606FBD5C1
:102000001E886F2F0CBF08230A235248002184F832
:1020100043106568002DA8BF2168A560A4BF21F00A
:10202000040121600EB9002D4DD01546B6FBF3F129
:1020300003FB1167C75D05F8017D3746BB420E46BD
:10204000F4D9082B0BD12368DE0708D52369616812
:102050009942DEBF302305F8013C05F1FF35521BE4
:1020600022614B4621464046CDF800A003AAFFF767
:10207000DFFE01304CD14FF0FF3004B0BDE8F087F7
:10208000344881F845702968236851F8046B296049
:102090001D0614D5DF0744BF43F0200323601EB99B
:1020A000236823F0200323601023AFE7236843F065
:1020B000200323607823284884F84530E3E7590655
:1020C00048BFB6B2E6E71546BBE72B682668181D81
:1020D0006169286035061B6801D5196002E0700649
:1020E000FBD51980002315462361BAE72B68002130
:1020F0001A1D2A601D686268284600F02FF808B192
:10210000401B606063682361002384F84330A8E7C4
:102110002A46494640462369D0470130ABD0236860
:102120009B0713D4E068039B9842B8BF1846A4E706
:102130000123324649464046D04701309BD0013505
:10214000E36803995B1AAB42F2DCEBE7002504F18C
:102150001906F5E797240008A8240008034610B5DF
:10216000C9B202449342184601D1002003E004782A
:1021700001338C42F6D110BD0A44914200F1FF3385
:1021800000D1704710B511F8014B914203F8014F8F
:10219000F9D110BD884210B501EB020402D9844286
:1021A000234607D8431EA14208D011F8012B03F89B
:1021B000012FF8E7014602448A4200D110BD13F80E
:1021C000014D02F8014DF7E738B50546002940D02A
:1021D00051F8043C0C1F002BB8BFE41800F010F9B4
:1021E0001C4A136833B9636014602846BDE8384060
:1021F00000F00CB9A34208D9206821188B4201BF16
:1022000019685B6809182160EDE71A465B680BB135
:10221000A342FAD911685018A0420BD1206801449A
:10222000501883421160E0D118685B680144116066
:102230005360DAE702D90C232B60D6E72068211817
:102240008B4201BF19685B680918216063605460A4
:10225000CBE738BD0C01002070B50E4E0C4631683E
:10226000054611B900F0BCF830602146284600F060
:10227000B7F8431C0AD0C41C24F00304A04207D0C2
:10228000211A284600F0ACF8013001D14FF0FF349C
:10229000204670BD100100202DE9F041CD1C25F035
:1022A000030508350C2D38BF0C25002D074601DB32
:1022B000A94205D90C2300263B603046BDE8F081D9
:1022C0002E4E00F09DF833681C4634BB2946384634
:1022D000FFF7C2FF431C04464DD134682646002E4A
:1022E00040D123683146384604EB030800F078F803
:1022F00080453AD1216803356D1A25F0030508356C
:102300000C2D38BF0C2538462946FFF7A5FF0130B4
:102310002BD023682B4423600EE02268521B1ED46E
:102320000B2A16D96119A342256018BF596063684A
:1023300008BF316062514B60384604F10B0600F073
:1023400065F826F00706231DF21AB6D09B1BA35092
:10235000B3E76268A3420CBF32605A60ECE72346E1
:102360006468B2E734467668B9E70C2338463B60C8
:1023700000F04CF8A1E72560DEE700BF0C0100206B
:102380002DE9F041804614460E4621B91146BDE8BC
:10239000F041FFF781BF2AB9FFF716FF254628460F
:1023A000BDE8F08100F038F88442074602D8B4EB6B
:1023B000500F12D821464046FFF76EFF0546002811
:1023C000EDD0BC422246314628BF3A46FFF7D4FE44
:1023D00031464046FFF7F8FEE1E73546DFE700000B
:1023E00038B50023054D044608462B60FEF704FB74
:1023F000431C02D12B6803B1236038BD14010020B7
:10240000014800F011B800BF18010020014800F099
:102410000CB800BF1801002051F8043C181F002B15
:10242000BCBF0B58C018704770477047F8B500BF65
:10243000F8BC08BC9E467047F8B500BFF8BC08BCA5
:042440009E467047FD
:102444002568750D0A00000000000000000001026C
:102454000304060708090000000001020304020344
:102464000405060708090A0B0C0D0E0F10100102D3
:1024740002030405060708090A0B0C0D0E0F1010C1
:102484000102232D302B2000686C4C0065666745E3
:1024940046470030313233343536373839414243D8
:1024A4004445460030313233343536373839616289
:0824B40063646566000000008E
:0424BC0035010008DE
:0424C00011010008FE
:1024C4000024F400010000001000000010000020AF
:1024D40000000000000000000000000000000000F8
:1024E40000000000000000000000000000000000E8
:1024F40000000000000000000000000000000000D8
:1025040000000000000000000000000000000000C7
:1025140000000000000000000000000000000000B7
:1025240000000000000000000000000000000000A7
:0400000508000A3DA8
:00000001FF
