:020000040800F2
:1000000000280020C9030008B1030008B30300085A
:10001000B5030008B7030008B9030008000000009A
:10002000000000000000000000000000BB0300080A
:10003000BD03000800000000BF030008C103000862
:10004000110400081104000811040008110400083C
:10005000110400081104000811040008110400082C
:10006000110400081104000811040008110400081C
:10007000110400081104000811040008110400080C
:1000800011040008110400081104000811040008FC
:1000900011040008110400081104000811040008EC
:1000A00011040008110400081104000811040008DC
:1000B00011040008110400080000000011040008E9
:1000C00011040008000000000000000011040008F6
:1000D00000000000110400081104000800000000E6
:1000E00011040008110400081104000800000000B9
:1000F0000000000000000000000000000000000000
:0C01000000000000000000005FF808F1A3
:10010C0010B5054C237833B9044B13B10448AFF345
:10011C0000800123237010BD0C00002000000000A3
:10012C00DC13000808B5034B1BB103490348AFF3BC
:10013C00008008BD0000000010000020DC13000847
:10014C0030B595B0242200210BA801F039F9142206
:10015C00102500210DEB020001F032F900212A4696
:10016C0001A801F02DF9022401230AA8CDE90E35CE
:10017C000A9400F041FD014608B172B6FEE70F2368
:10018C00CDE90700CDE90530099005A800F0F6FE91
:10019C0008B172B6FEE7039001A8019400F0AAFF23
:1001AC0008B172B6FEE715B030BD0000F0B589B0ED
:1001BC0000F04EF9334A02AB10685168128903C340
:1001CC001A80FFF7BDFF304B304C9A69012542F085
:1001DC0020029A619A69204602F020020092009A4D
:1001EC009A6942F004029A619B69294A03F004035C
:1001FC000193019B226000234FF46022CDE905336B
:10020C000793A36023732375E2616360256100F09B
:10021C0047FB08B172B6FEE7CDE90505079005A9C5
:10022C00204600F0FBF9034608B172B6FEE74FF426
:10023C00165218481849C0E90233C0E900120C22C2
:10024C000361C0E90523C36101F066F8C0B9134F1F
:10025C00204600F09DFA42F21071204600F02EF973
:10026C00204600F0D7F9002502AE16F8013B4FF4FA
:10027C007A70FB60013500F00FF90A2DF5D1E7E734
:10028C0072B6FEE7F41300080010024028000020AC
:10029C0000240140580000200038014000080140B3
:1002AC000A4B82B09A6942F001029A619A6902F093
:1002BC0001020092009ADA6942F08052DA61DB693D
:1002CC0003F080530193019B02B070470010024071
:1002DC0010B5044686B01022002102A801F070F877
:1002EC002268104B9A421BD103F56C439A690E4855
:1002FC0042F400729A619A6902A902F400720092A7
:10030C00009A9A6942F004029A619B69012203F0F7
:10031C0004030193019B0323CDE9022300F096FB18
:10032C0006B010BD002401400008014010B5044681
:10033C0086B01022002102A801F042F82268174B67
:10034C009A4228D103F558439A69154842F48042E1
:10035C009A619A6902A902F480420092009A9A6901
:10036C0042F004029A619B694FF4007203F004039B
:10037C000193019B0223CDE902230323059300F093
:10038C0065FB4FF4806100230548CDE9021302A9F7
:10039C00049300F05BFB06B010BD00BF00380140B9
:1003AC0000080140FEE7FEE7FEE7FEE7FEE77047C8
:1003BC007047704700F05EB870470000FFF7FCFF15
:1003CC000B480C490C4A002302E0D458C4500433A7
:1003DC00C4188C42F9D3094A094C002301E013607C
:1003EC000432A242FBD300F0C7FFFFF7DFFE7047D9
:1003FC00000000200C000020441400080C00002019
:10040C00A4000020FEE7000038B50E4B0546187816
:10041C004FF47A73B3FBF0F30B4A1068B0FBF3F0B4
:10042C0000F000FB044658B90F2D09D802462946A6
:10043C004FF0FF3000F0C4FA2046044B1D6038BD6D
:10044C000120FCE704000020000000200800002030
:10045C00074A08B51368032043F01003136000F03B
:10046C009DFA0F20FFF7D0FFFFF71AFF002008BD01
:10047C0000200240034A044B11681B780B441360A4
:10048C00704700BFA000002004000020014B18683A
:10049C00704700BFA000002038B50446FFF7F6FFF8
:1004AC000546631C1EBF044B1B78E418FFF7EEFFD8
:1004BC00431BA342FAD338BD04000020F7B5002635
:1004CC0004460D460196FFF7E1FF236807469A683C
:1004DC00D20508D50120A36A84F8246043F02003D8
:1004EC00A36203B0F0BD5A68D60503D4DB6A13F4DB
:1004FC00700F3FD0414B02201E6800F075FE236840
:10050C003F4A1969B6FBF0F611423E4A53D1D868FE
:10051C003D4908424FD1196911425DD1DA683B4B14
:10052C001A4214BF292314235E43019BB34225D2E4
:10053C006A1C5CD0002D55D1019BB34257D2A36AE3
:10054C0043F00403A36200230BE0681C13D065B9CD
:10055C0023681B6813F002030CD1A26A42F0040258
:10056C00A262032084F82430BBE7FFF78FFFC01B87
:10057C00A842EDD8226813689907E6D56FF01203EC
:10058C0022681360A36A43F40073A362936803F4B4
:10059C006023B3F5602F2ED1207B00282BD1A36ACA
:1005AC0023F48073A362A36ADB0424D4A36A43F00C
:1005BC000103A36295E71969114203D1D968134A63
:1005CC0011420BD01969124A114209D1DB6813424E
:1005DC0014BFFC235423A7E72923A5E75423A3E73F
:1005EC00FC23A1E7FFF752FFC01BA842A4D8019B34
:1005FC000133019399E7002073E700BF000000204E
:10060C0024499224922449122449920092244900AC
:10061C00499224000368D86C70470000002373B51E
:10062C00019390F824300446012B6CD0012380F800
:10063C0024304D680268062D086805EB850322D826
:10064C001F26556B053B9E4025EA060500FA03F371
:10065C002B43536309288B6800EB40054FF00701CF
:10066C0029D9D6681E3DA94026EA0101AB400B43AF
:10067C00D360A0F11003012B25D90020002384F8AE
:10068C00243002B070BD0C2D4FF01F0509D8166B2D
:10069C00233B9D4026EA050500FA03F32B43136325
:1006AC00D8E7D66A413B9D4026EA050500FA03F3DC
:1006BC002B43D362CEE71069A94020EA0101AB407D
:1006CC000B431361D9E7114B9A4216D193681B0265
:1006DC00D3D49368102843F400039360CDD10C4B12
:1006EC000C4A1B68B3FBF2F30A2253430193019BA0
:1006FC00002BC2D0019B013BF8E7A36A012043F019
:10070C002003A362BAE70220BBE700BF002401402C
:10071C000000002040420F00002337B5019303680E
:10072C0004469A68D20702D5002003B030BD9A68FF
:10073C0042F001029A60144B144A1B68B3FBF2F3AB
:10074C000193019BE3B9FFF7A1FE054623689B6863
:10075C00DB07E9D4FFF79AFE401B0228F6D9236881
:10076C009B6813F00103F1D1A26A012042F0100240
:10077C00A262E26A84F8243042F00102E262D4E719
:10078C00019B013BDCE700BF0000002040420F0052
:10079C0010B590F824300446012B54D0012380F876
:1007AC002430FFF7B9FF002849D1A36A274A23F464
:1007BC00407323F0010343F48073A36223689342D4
:1007CC0004D123494A6812F4702F2ED1A26A22F464
:1007DC008012A2625A68520541BFA26A22F44052AA
:1007EC0042F48052A262A26A12F480521CBFE26AE6
:1007FC0022F00602E262002284F824206FF002024A
:10080C001A609A6802F46022B2F5602F13D10F4A75
:10081C00934205D1A2F58062526812F4702F0AD16E
:10082C009A6842F4A0029A6010BDA26A42F4801247
:10083C00A2624A68CFE79A6842F48012F3E7002379
:10084C0084F82430F0E70220EEE700BF00280140D6
:10085C000024014038B5036804469A68D10701D4D6
:10086C00002038BD9A6822F001029A60FFF70EFE54
:10087C00054623689B68DB07F2D5FFF707FE401B94
:10088C000228F6D923689B68DA07F2D5A36A0120FF
:10089C0043F01003A362E36A43F00103E362E0E771
:1008AC00F8B5044600286ED0836A23B9C36280F879
:1008BC002430FFF70DFD2046FFF7CCFFA36A13F0A1
:1008CC00100362D1002860D1A26AE569616822F444
:1008DC00885222F0020242F002022943A568A26269
:1008EC00227BB5F5807F41EA420137D0012D14BF40
:1008FC0000274FF48077267D012E06D182BBA2699A
:10090C00013A47EA423646F400672268B5F5807F23
:10091C00566826F4694646EA0706566097681D4EE7
:10092C0006EA070646EA0106966001D0012D02D1BF
:10093C002369013B1B05D56A25F470052B43D36253
:10094C009268154B1340994213D10023E362A36ABA
:10095C0023F0030343F00103A362F8BD2F46CAE75B
:10096C00A26A42F02002A262E26A42F00102E26252
:10097C00CBE7A36A23F0120343F01003A362E36AEC
:10098C0043F00103E3620120E7E7A36A43F010039D
:10099C00A362F8E7FDF7E1FFFE0E1FFF0749030214
:1009AC00CA6803F4E06322F4E0621204120C1343ED
:1009BC0043F0BF6343F40033CB60704700ED00E0BD
:1009CC00164B30B5DC68C4F30224C4F10703251DB3
:1009DC00042B28BF0423062D4FF0FF3598BF0024AD
:1009EC0005FA03F388BF033C21EA0303A34005FA8D
:1009FC0004F422EA0402002843EA0203ACBF00F12B
:100A0C006040074A4FEA0313DBB2ABBF00F561400D
:100A1C0000F00F0080F80033135430BD00ED00E0FF
:100A2C0014ED00E00138B0F1807F0BD24FF0E023E1
:100A3C00F021054A586182F82310002007229861A2
:100A4C001A6170470120704700ED00E02DE9F74F67
:100A5C0000221646614F624BDFF888C1DFF888E14F
:100A6C000D6835FA06F402D103B0BDE8F08F4FF0F3
:100A7C00010808FA06F805EA080438EA050577D1F2
:100A8C004D68032D07D8013D022D00F28280DFE86E
:100A9C0005F092979D00122D00F095806AD8112DCB
:100AAC0000F08B80FF2C98BF82464FF00F0988BF57
:100ABC0000F1040A4FEA8605DAF8008088BF203D71
:100ACC0009FA05FB28EA0B0802FA05F548EA0505C0
:100ADC00CAF80050D1F804A01AF0805F48D0BD6964
:100AEC0026F0030845F00105BD61BD6908F1804899
:100AFC0005F00105019508F5803806F0030B019D02
:100B0C004FEA8B0BD8F8085009FA0BF925EA0909BA
:100B1C00364DA8425ED005F58065A8425CD005F53F
:100B2C008065A8420CBF0225032505FA0BF545EAA2
:100B3C000905C8F808509D681AF4801F14BF254396
:100B4C00A5439D60DD681AF4001F14BF2543A5431F
:100B5C00DD605D681AF4003F14BF2543A5435D605A
:100B6C001D681AF4803F14BF2C4325EA04041C6052
:100B7C00013675E7DFF878904D450AD015D87545E4
:100B8C0007D0A9F580394D4503D0A9F580194D45FD
:100B9C0088D18A68E2B1012A08BFC0F810804FF0F2
:100BAC00080218BFC0F814807CE7DFF848904D4568
:100BBC00EFD06545ECE7CA6874E7CA68043271E7A0
:100BCC00CA6808326EE7CA680C326BE7002269E724
:100BDC00042267E70025A8E70125A6E700100240DC
:100BEC000004014000003210000012100008014007
:100BFC0000002210000031102DE9F341054638B3F6
:100C0C000368DB0710D42B689F075ED42B68190789
:100C1C0000F195802B685A0700F1C180E869002823
:100C2C0040F02C81002029E0904C636803F00C0309
:100C3C00042B07D0636803F00C03082B0AD16368FC
:100C4C00DE0307D523689C03DDD56B68002BDAD156
:100C5C00012013E06B68B3F5803F12D1236843F495
:100C6C0080332360FFF712FC064623689803CAD42E
:100C7C00FFF70CFC801B6428F7D9032002B0BDE8F9
:100C8C00F0819BB9236823F480332360236823F419
:100C9C0080232360FFF7FAFB064623689903B2D53D
:100CAC00FFF7F4FB801B6428F7D9E6E7B3F5A02F18
:100CBC00236803D143F480232360CFE723F48033EC
:100CCC002360236823F48023CBE7684C636813F01C
:100CDC000C0F07D0636803F00C03082B10D163686A
:100CEC00DA030DD423689B0702D52B69012BAFD1F6
:100CFC0023686A6923F0F80343EAC203236085E79B
:100D0C002A695B4B6AB101221A60FFF7BFFB0646EA
:100D1C0023689F07ECD4FFF7B9FB801B0228F7D997
:100D2C00ABE71A60FFF7B2FB0646236898077FF51E
:100D3C006DAFFFF7ABFB801B0228F6D99DE7AA69C4
:100D4C004A4E4B4BE2B10122C3F88024FFF79EFBC5
:100D5C000446736A9B070DD54FF4FA52454B1B683A
:100D6C00B3FBF2F3019300BF019B5A1E0192002BBF
:100D7C00F9D14FE7FFF78AFB001B0228E9D97CE782
:100D8C00C3F88024FFF782FB0446736A9F077FF544
:100D9C0041AFFFF77BFB001B0228F6D96DE7334C04
:100DAC00E369D80024D40127E36943F08053E3615D
:100DBC00E36903F080530093009B2F4E3368D905F1
:100DCC0018D5EB68012B26D1236A43F0010323626B
:100DDC00FFF75CFB41F288380646236A9B073FD538
:100DEC00002F3FF41BAFE36923F08053E36115E759
:100DFC000027E2E7336843F480733360FFF746FB68
:100E0C0080463368DA05DCD4FFF740FBA0EB080022
:100E1C006428F6D931E7ABB9236A41F2883823F05C
:100E2C0001032362236A23F004032362FFF72EFBE2
:100E3C000646236A9807D3D5FFF728FB801B40454D
:100E4C00F7D91AE7052B236A03D143F00403236275
:100E5C00BAE723F001032362236A23F00403B6E705
:100E6C00FFF714FB801B4045B7D906E70010024082
:100E7C000000424200000020007000402A4C6368D1
:100E8C0003F00C03082B3ED00022284B02281A66D4
:100E9C002CD1FFF7FBFA06462368990120D42B6A64
:100EAC00B3F5803F05D16268A96822F400320A4389
:100EBC006260696A62680B4322F474121343012264
:100ECC0063601A4B1A66FFF7E1FA054623689A012C
:100EDC003FF5A8AEFFF7DAFA401B0228F6D9CCE6AC
:100EEC00FFF7D4FA801B0228D6D9C6E6FFF7CEFA54
:100EFC00054623689B017FF595AEFFF7C7FA401BAB
:100F0C000228F6D9B9E601283FF4B8AE63682A6A1C
:100F1C0003F4803191427FF49BAE6A6A03F4701340
:100F2C0093423FF47FAE93E6001002400000424231
:100F3C000D4A536803F00C01082912D10B48C3F376
:100F4C008341DB03405C09D55368094AC3F3404332
:100F5C005043084AD35CB0FBF3F07047064B584340
:100F6C0070470348704700BF001002401714000878
:100F7C0000127A002714000800093D002DE9F04109
:100F8C000D46044610B90120BDE8F081444A1368AF
:100F9C0003F007038B4228D321688E0730D4CA078D
:100FAC0043D43F4A136803F00703AB4265D8226869
:100FBC003C4D12F0040F6CD1130706D56B682269F7
:100FCC0023F4605343EAC2036B60FFF7B1FF6B6815
:100FDC00354AC3F30313D35CD840344B1860344BFD
:100FEC001868FFF711FA0020CEE7136823F0070307
:100FFC000B431360136803F007038B42C3D1CBE799
:10100C00284B11F0040F1EBF5A6842F4E0625A607C
:10101C00080742BF5A6842F460525A605A68A06886
:10102C0022F0F00202435A60B9E762681D4E012AB1
:10103C0033681AD113F4003FA5D0736841F2883895
:10104C0023F0030313437360FFF720FA074673681A
:10105C00626803F00C03B3EB820FA2D0FFF716FA11
:10106C00C01B4045F3D903208EE7022A02D113F0AE
:10107C00007FE1E713F0020FDEE7136823F00703AC
:10108C002B431360136803F00703AB427FF47BAF71
:10109C008DE76B68E16823F4E0630B436B608BE7CF
:1010AC000020024000100240FF1300080000002046
:1010BC0008000020044B054A5B68C3F30223D35C91
:1010CC00034A1068D8407047001002400F14000803
:1010DC0000000020044B054A5B68C3F3C223D35CB9
:1010EC00034A1068D8407047001002400F140008E3
:1010FC000000002003682DE9F341D907054620D5EF
:10110C00364CE369DA0032D40126E36943F08053AC
:10111C00E361E36903F080530193019B304F3B681B
:10112C00DB0526D5236A13F4407336D1236A6A682B
:10113C0023F44073134323621EB1E36923F08053FD
:10114C00E3612868830706D52449AB684A6822F412
:10115C0040421A434A6010F010001BD01F4AE96845
:10116C005368002023F480030B43536012E00026E5
:10117C00D4E73B6843F480733B60FFF787F9804604
:10118C003B68D805CED4FFF781F9A0EB08006428A2
:10119C00F6D9032002B0BDE8F0816A6802F440720F
:1011AC009A42C3D001200F4A236AC2F8400400209F
:1011BC0023F44071C2F840042162D907B6D5FFF779
:1011CC0065F941F288380746236A9A07AED4FFF7CF
:1011DC005DF9C01B4045F7D9DBE700BF00100240AA
:1011EC000070004000004242022808B544D010288C
:1011FC0003D0012822D0002034E0254B5A6818680F
:10120C0010F080702ED0C2F383412248D20348BF25
:10121C005A68405C41BF2049C2F34042895C1F4A76
:10122C005B684CBFB2FBF1F21D4A5B0202FB00F0A3
:10123C0018D403234000B0FBF3F013E040F202316A
:10124C00134A136A1940B1F5817F1ED003F4407321
:10125C00B3F5007F07D149F64043506A10F0020005
:10126C0018BF184608BDB3F5407FC4D110684FF2C3
:10127C00244310F40030F3E7FFF72CFF044B5B68BA
:10128C00C3F3813301335B00D5E74FF40040E9E74A
:10129C0000100240291400083914000800127A00CA
:1012AC0000093D0010B504460368C1681A6922F4B0
:1012BC0040520A431A6182680069D9680243606926
:1012CC0021F4B05121F00C0102430A43DA605A694F
:1012DC00A16922F440720A435A610E4A934215D115
:1012EC00FFF7F8FE19234343626820689200B3FBB2
:1012FC00F2F36422B3FBF2F102FB11331B01323324
:10130C00B3FBF2F303EB0113836010BDFFF7D2FEC6
:10131C00E8E700BF0038014010B5044648B390F828
:10132C00413003F0FF021BB980F84020FEF7FEFFAE
:10133C002423226884F84130D368204623F40053D8
:10134C00D360FFF7AFFF236800201A6922F49042A4
:10135C001A615A6922F02A025A61DA6842F4005280
:10136C00DA602023606484F8413084F84230606392
:10137C0010BD0120FCE7000070B500260C4D0D4C93
:10138C00641BA410A64209D100F022F800260A4DD5
:10139C000A4C641BA410A64205D170BD55F8043B41
:1013AC0098470136EEE755F8043B98470136F2E7CB
:1013BC003C1400083C1400083C14000840140008BD
:1013CC0003460244934200D1704703F8011BF9E72E
:1013DC00F8B500BFF8BC08BC9E467047F8B500BF16
:0813EC00F8BC08BC9E467047E6
:1013F4003F065B4F666D7D077F6F000000000000B5
:1014040000000001020304060708090000000001AF
:1014140002030402030405060708090A0B0C0D0E57
:101424000F1010010202030405060708090A0B0C39
:081434000D0E0F101001020063
:04143C003101000872
:041440000D01000892
:0C1444000024F400010000001000000073
:04000005080003C923
:00000001FF
